:1000000075817075D000780079007438316331A73C
:10001000740F316331A77401316331A77406316302
:1000200031A77480316331A71201C3B43D1BE8BF0F
:10003000721A7E010EEE8EF0A488F0B5F0028003F5
:1000400040F21EEE1202A380DF0200CCBF5E37B981
:1000500002079002D3930200B4B80705120173801F
:10006000C7B808051201B080BFB8091474373186CB
:1000700031A77432318631A77439318631A780A80F
:100080009002DD93802EE889F0BF2B0525F0020059
:10009000B4BF2D26B5F0004006C2D795F08015C03C
:1000A00006FEE49002E493318631A7EED006C2D773
:1000B00095F0F4041202A3020028BF2A0BA4020048
:1000C000B4C2D795F00200B4840200B4B472057FC4
:1000D00072020028B45E057F5E020028B4280BC0BF
:1000E00000C00778007F00020028B42925E889F0C5
:1000F000BF2B0525F002010ABF2D07C2D795F002DC
:10010000010ABF2A04A402010A84F8D007D0010220
:100110000028B42B04FF020028B42D04FF0200289D
:10012000B42A04FF020028B42F04FF020028BF2BCA
:100130000FC2D79430FAE975F00AA42AF902002810
:10014000BF2D0280ECBF2A0280E7BF2F0280E2BFF2
:100150005E0280DDC2D79430FAE875F00AA42AF86E
:10016000020028120196F590C280C281D28231A786
:10017000C282227433318631A77434318631A77438
:1001800033318631A722120196F590D280C281D2F6
:100190008231A7C28222D297C280D281C28212014A
:1001A000A7D2822097F6227B327CFFDCFEDBFA228C
:1001B0007435318631A77431318631A77432318676
:1001C00031A72274FFF5A075B000E5A0540FB40F5D
:1001D000F631A730831230842630854A308633E5E5
:1001E000A0540FB40F5E80E931A731A77F7231A709
:1001F00031A731A731A77472318631A702002B31A4
:10020000A731A731A731A731A77430318631A702B2
:10021000002B31A731A731A731A731A7E4F8F9FAAC
:10022000FDFEFF02000A31A731A731A731A731A790
:1002300031A7745E318631A702002BE493318631F9
:10024000A702002831A7E5A0540FB40F02808275E1
:10025000B0FEE5A0540FB40F2175B0FDE5A0540F1A
:10026000B40F1C75B0FBE5A0540FB40F1775B0F7B1
:10027000E5A0540FB40F120201D19002C3800F9079
:1002800002C7800A9002CB80059002CF80001350F5
:1002900003A380FAE493318631A722318631A71275
:1002A00001C32275F00A84ADF075F00A8424303160
:1002B0008631A7E5F02430318631A7ED24301202D3
:1002C0009B220034333231383736352A2D2B393DD5
:1002D00029282F0102040810192431405101030874
:0502E0001B407DD82D3C
:00000001FF
